{
  "_format": "hh-sol-artifact-1",
  "contractName": "ERC1155Holder",
  "sourceName": "contracts/ERC1155Holder.sol",
  "abi": [
    {
      "inputs": [
        {
          "internalType": "address",
          "name": "",
          "type": "address"
        },
        {
          "internalType": "address",
          "name": "",
          "type": "address"
        },
        {
          "internalType": "uint256[]",
          "name": "",
          "type": "uint256[]"
        },
        {
          "internalType": "uint256[]",
          "name": "",
          "type": "uint256[]"
        },
        {
          "internalType": "uint256[]",
          "name": "",
          "type": "uint256[]"
        },
        {
          "internalType": "bytes",
          "name": "",
          "type": "bytes"
        }
      ],
      "name": "onERC1155BatchReceived",
      "outputs": [
        {
          "internalType": "bytes4",
          "name": "",
          "type": "bytes4"
        }
      ],
      "stateMutability": "nonpayable",
      "type": "function"
    },
    {
      "inputs": [
        {
          "internalType": "address",
          "name": "",
          "type": "address"
        },
        {
          "internalType": "address",
          "name": "",
          "type": "address"
        },
        {
          "internalType": "uint256",
          "name": "",
          "type": "uint256"
        },
        {
          "internalType": "uint256",
          "name": "",
          "type": "uint256"
        },
        {
          "internalType": "uint256",
          "name": "",
          "type": "uint256"
        },
        {
          "internalType": "bytes",
          "name": "",
          "type": "bytes"
        }
      ],
      "name": "onERC1155Received",
      "outputs": [
        {
          "internalType": "bytes4",
          "name": "",
          "type": "bytes4"
        }
      ],
      "stateMutability": "nonpayable",
      "type": "function"
    },
    {
      "inputs": [
        {
          "internalType": "bytes4",
          "name": "interfaceId",
          "type": "bytes4"
        }
      ],
      "name": "supportsInterface",
      "outputs": [
        {
          "internalType": "bool",
          "name": "",
          "type": "bool"
        }
      ],
      "stateMutability": "view",
      "type": "function"
    }
  ],
  "bytecode": "0x608060405234801561001057600080fd5b506106e4806100206000396000f3fe608060405234801561001057600080fd5b50600436106100415760003560e01c806301ffc9a714610046578063c6c1954a14610076578063ce6d05dc146100a6575b600080fd5b610060600480360381019061005b91906104ad565b6100d6565b60405161006d91906104f4565b60405180910390f35b610090600480360381019061008b9190610323565b610150565b60405161009d919061050f565b60405180910390f35b6100c060048036038101906100bb919061040c565b610166565b6040516100cd919061050f565b60405180910390f35b60007f08ac9096000000000000000000000000000000000000000000000000000000007bffffffffffffffffffffffffffffffffffffffffffffffffffffffff1916827bffffffffffffffffffffffffffffffffffffffffffffffffffffffff1916148061014957506101488261017c565b5b9050919050565b600063c6c1954a60e01b90509695505050505050565b600063ce6d05dc60e01b90509695505050505050565b60007f01ffc9a7000000000000000000000000000000000000000000000000000000007bffffffffffffffffffffffffffffffffffffffffffffffffffffffff1916827bffffffffffffffffffffffffffffffffffffffffffffffffffffffff1916149050919050565b60006101f96101f48461055b565b61052a565b9050808382526020820190508285602086028201111561021857600080fd5b60005b85811015610248578161022e888261030e565b84526020840193506020830192505060018101905061021b565b5050509392505050565b600061026561026084610587565b61052a565b90508281526020810184848401111561027d57600080fd5b61028884828561062b565b509392505050565b60008135905061029f81610669565b92915050565b600082601f8301126102b657600080fd5b81356102c68482602086016101e6565b91505092915050565b6000813590506102de81610680565b92915050565b600082601f8301126102f557600080fd5b8135610305848260208601610252565b91505092915050565b60008135905061031d81610697565b92915050565b60008060008060008060c0878903121561033c57600080fd5b600061034a89828a01610290565b965050602061035b89828a01610290565b955050604087013567ffffffffffffffff81111561037857600080fd5b61038489828a016102a5565b945050606087013567ffffffffffffffff8111156103a157600080fd5b6103ad89828a016102a5565b935050608087013567ffffffffffffffff8111156103ca57600080fd5b6103d689828a016102a5565b92505060a087013567ffffffffffffffff8111156103f357600080fd5b6103ff89828a016102e4565b9150509295509295509295565b60008060008060008060c0878903121561042557600080fd5b600061043389828a01610290565b965050602061044489828a01610290565b955050604061045589828a0161030e565b945050606061046689828a0161030e565b935050608061047789828a0161030e565b92505060a087013567ffffffffffffffff81111561049457600080fd5b6104a089828a016102e4565b9150509295509295509295565b6000602082840312156104bf57600080fd5b60006104cd848285016102cf565b91505092915050565b6104df816105c9565b82525050565b6104ee816105d5565b82525050565b600060208201905061050960008301846104d6565b92915050565b600060208201905061052460008301846104e5565b92915050565b6000604051905081810181811067ffffffffffffffff821117156105515761055061063a565b5b8060405250919050565b600067ffffffffffffffff8211156105765761057561063a565b5b602082029050602081019050919050565b600067ffffffffffffffff8211156105a2576105a161063a565b5b601f19601f8301169050602081019050919050565b60006105c282610601565b9050919050565b60008115159050919050565b60007fffffffff0000000000000000000000000000000000000000000000000000000082169050919050565b600073ffffffffffffffffffffffffffffffffffffffff82169050919050565b6000819050919050565b82818337600083830152505050565b7f4e487b7100000000000000000000000000000000000000000000000000000000600052604160045260246000fd5b610672816105b7565b811461067d57600080fd5b50565b610689816105d5565b811461069457600080fd5b50565b6106a081610621565b81146106ab57600080fd5b5056fea2646970667358221220c85a2c4d8b69f13402b840ddca9853ec52f3f84e484fa5b5dbcf0e0642cd698964736f6c63430008000033",
  "linkReferences": {},
  "deployedLinkReferences": {}
}