{
  "_format": "hh-sol-artifact-1",
  "contractName": "PropertyToken",
  "sourceName": "contracts/PropertyToken.sol",
  "abi": [
    {
      "inputs": [
        {
          "internalType": "string",
          "name": "uri_",
          "type": "string"
        },
        {
          "internalType": "address",
          "name": "treasury",
          "type": "address"
        },
        {
          "internalType": "bytes",
          "name": "_parentHash",
          "type": "bytes"
        },
        {
          "internalType": "address",
          "name": "_propertyAddress",
          "type": "address"
        }
      ],
      "stateMutability": "nonpayable",
      "type": "constructor"
    },
    {
      "anonymous": false,
      "inputs": [
        {
          "indexed": true,
          "internalType": "address",
          "name": "account",
          "type": "address"
        },
        {
          "indexed": true,
          "internalType": "address",
          "name": "operator",
          "type": "address"
        },
        {
          "indexed": false,
          "internalType": "bool",
          "name": "approved",
          "type": "bool"
        }
      ],
      "name": "ApprovalForAll",
      "type": "event"
    },
    {
      "anonymous": false,
      "inputs": [
        {
          "indexed": false,
          "internalType": "address",
          "name": "account",
          "type": "address"
        }
      ],
      "name": "Paused",
      "type": "event"
    },
    {
      "anonymous": false,
      "inputs": [
        {
          "indexed": false,
          "internalType": "uint256",
          "name": "propertyId",
          "type": "uint256"
        },
        {
          "indexed": false,
          "internalType": "address",
          "name": "owner",
          "type": "address"
        },
        {
          "indexed": false,
          "internalType": "bytes",
          "name": "MerkleTree",
          "type": "bytes"
        }
      ],
      "name": "PropertyAdded",
      "type": "event"
    },
    {
      "anonymous": false,
      "inputs": [
        {
          "indexed": true,
          "internalType": "bytes32",
          "name": "role",
          "type": "bytes32"
        },
        {
          "indexed": true,
          "internalType": "bytes32",
          "name": "previousAdminRole",
          "type": "bytes32"
        },
        {
          "indexed": true,
          "internalType": "bytes32",
          "name": "newAdminRole",
          "type": "bytes32"
        }
      ],
      "name": "RoleAdminChanged",
      "type": "event"
    },
    {
      "anonymous": false,
      "inputs": [
        {
          "indexed": true,
          "internalType": "bytes32",
          "name": "role",
          "type": "bytes32"
        },
        {
          "indexed": true,
          "internalType": "address",
          "name": "account",
          "type": "address"
        },
        {
          "indexed": true,
          "internalType": "address",
          "name": "sender",
          "type": "address"
        }
      ],
      "name": "RoleGranted",
      "type": "event"
    },
    {
      "anonymous": false,
      "inputs": [
        {
          "indexed": true,
          "internalType": "bytes32",
          "name": "role",
          "type": "bytes32"
        },
        {
          "indexed": true,
          "internalType": "address",
          "name": "account",
          "type": "address"
        },
        {
          "indexed": true,
          "internalType": "address",
          "name": "sender",
          "type": "address"
        }
      ],
      "name": "RoleRevoked",
      "type": "event"
    },
    {
      "anonymous": false,
      "inputs": [
        {
          "indexed": true,
          "internalType": "address",
          "name": "operator",
          "type": "address"
        },
        {
          "indexed": true,
          "internalType": "address",
          "name": "from",
          "type": "address"
        },
        {
          "indexed": true,
          "internalType": "address",
          "name": "to",
          "type": "address"
        },
        {
          "indexed": false,
          "internalType": "uint256[]",
          "name": "ids",
          "type": "uint256[]"
        },
        {
          "indexed": false,
          "internalType": "uint256[]",
          "name": "amount",
          "type": "uint256[]"
        },
        {
          "indexed": false,
          "internalType": "uint256[]",
          "name": "values",
          "type": "uint256[]"
        }
      ],
      "name": "TransferBatch",
      "type": "event"
    },
    {
      "anonymous": false,
      "inputs": [
        {
          "indexed": true,
          "internalType": "address",
          "name": "operator",
          "type": "address"
        },
        {
          "indexed": true,
          "internalType": "address",
          "name": "from",
          "type": "address"
        },
        {
          "indexed": true,
          "internalType": "address",
          "name": "to",
          "type": "address"
        },
        {
          "indexed": false,
          "internalType": "uint256",
          "name": "id",
          "type": "uint256"
        },
        {
          "indexed": false,
          "internalType": "uint256",
          "name": "amount",
          "type": "uint256"
        },
        {
          "indexed": false,
          "internalType": "uint256",
          "name": "value",
          "type": "uint256"
        }
      ],
      "name": "TransferSingle",
      "type": "event"
    },
    {
      "anonymous": false,
      "inputs": [
        {
          "indexed": false,
          "internalType": "string",
          "name": "value",
          "type": "string"
        },
        {
          "indexed": true,
          "internalType": "uint256",
          "name": "id",
          "type": "uint256"
        }
      ],
      "name": "URI",
      "type": "event"
    },
    {
      "anonymous": false,
      "inputs": [
        {
          "indexed": false,
          "internalType": "address",
          "name": "account",
          "type": "address"
        }
      ],
      "name": "Unpaused",
      "type": "event"
    },
    {
      "inputs": [],
      "name": "DEFAULT_ADMIN_ROLE",
      "outputs": [
        {
          "internalType": "bytes32",
          "name": "",
          "type": "bytes32"
        }
      ],
      "stateMutability": "view",
      "type": "function"
    },
    {
      "inputs": [],
      "name": "EQUITY_RIGHT",
      "outputs": [
        {
          "internalType": "uint256",
          "name": "",
          "type": "uint256"
        }
      ],
      "stateMutability": "view",
      "type": "function"
    },
    {
      "inputs": [],
      "name": "MGMT_RIGHT",
      "outputs": [
        {
          "internalType": "uint256",
          "name": "",
          "type": "uint256"
        }
      ],
      "stateMutability": "view",
      "type": "function"
    },
    {
      "inputs": [],
      "name": "OCCUPANCY_RIGHT",
      "outputs": [
        {
          "internalType": "uint256",
          "name": "",
          "type": "uint256"
        }
      ],
      "stateMutability": "view",
      "type": "function"
    },
    {
      "inputs": [],
      "name": "POSSESSION_RIGHT",
      "outputs": [
        {
          "internalType": "uint256",
          "name": "",
          "type": "uint256"
        }
      ],
      "stateMutability": "view",
      "type": "function"
    },
    {
      "inputs": [],
      "name": "RENT_RIGHT",
      "outputs": [
        {
          "internalType": "uint256",
          "name": "",
          "type": "uint256"
        }
      ],
      "stateMutability": "view",
      "type": "function"
    },
    {
      "inputs": [],
      "name": "TREASURY_ROLE",
      "outputs": [
        {
          "internalType": "bytes32",
          "name": "",
          "type": "bytes32"
        }
      ],
      "stateMutability": "view",
      "type": "function"
    },
    {
      "inputs": [
        {
          "internalType": "address",
          "name": "account",
          "type": "address"
        },
        {
          "internalType": "uint256",
          "name": "id",
          "type": "uint256"
        }
      ],
      "name": "balanceOf",
      "outputs": [
        {
          "internalType": "uint256",
          "name": "",
          "type": "uint256"
        }
      ],
      "stateMutability": "view",
      "type": "function"
    },
    {
      "inputs": [
        {
          "internalType": "address[]",
          "name": "accounts",
          "type": "address[]"
        },
        {
          "internalType": "uint256[]",
          "name": "ids",
          "type": "uint256[]"
        }
      ],
      "name": "balanceOfBatch",
      "outputs": [
        {
          "internalType": "uint256[]",
          "name": "",
          "type": "uint256[]"
        }
      ],
      "stateMutability": "view",
      "type": "function"
    },
    {
      "inputs": [
        {
          "internalType": "uint256",
          "name": "id",
          "type": "uint256"
        }
      ],
      "name": "exists",
      "outputs": [
        {
          "internalType": "bool",
          "name": "",
          "type": "bool"
        }
      ],
      "stateMutability": "view",
      "type": "function"
    },
    {
      "inputs": [],
      "name": "getPropertyId",
      "outputs": [
        {
          "internalType": "uint256",
          "name": "",
          "type": "uint256"
        }
      ],
      "stateMutability": "view",
      "type": "function"
    },
    {
      "inputs": [],
      "name": "getRightsOwner",
      "outputs": [
        {
          "internalType": "address",
          "name": "",
          "type": "address"
        }
      ],
      "stateMutability": "view",
      "type": "function"
    },
    {
      "inputs": [
        {
          "internalType": "bytes32",
          "name": "role",
          "type": "bytes32"
        }
      ],
      "name": "getRoleAdmin",
      "outputs": [
        {
          "internalType": "bytes32",
          "name": "",
          "type": "bytes32"
        }
      ],
      "stateMutability": "view",
      "type": "function"
    },
    {
      "inputs": [
        {
          "internalType": "bytes32",
          "name": "role",
          "type": "bytes32"
        },
        {
          "internalType": "address",
          "name": "account",
          "type": "address"
        }
      ],
      "name": "grantRole",
      "outputs": [],
      "stateMutability": "nonpayable",
      "type": "function"
    },
    {
      "inputs": [
        {
          "internalType": "bytes32",
          "name": "role",
          "type": "bytes32"
        },
        {
          "internalType": "address",
          "name": "account",
          "type": "address"
        }
      ],
      "name": "hasRole",
      "outputs": [
        {
          "internalType": "bool",
          "name": "",
          "type": "bool"
        }
      ],
      "stateMutability": "view",
      "type": "function"
    },
    {
      "inputs": [
        {
          "internalType": "address",
          "name": "account",
          "type": "address"
        },
        {
          "internalType": "address",
          "name": "operator",
          "type": "address"
        }
      ],
      "name": "isApprovedForAll",
      "outputs": [
        {
          "internalType": "bool",
          "name": "",
          "type": "bool"
        }
      ],
      "stateMutability": "view",
      "type": "function"
    },
    {
      "inputs": [
        {
          "internalType": "uint256",
          "name": "id",
          "type": "uint256"
        },
        {
          "internalType": "uint256",
          "name": "price",
          "type": "uint256"
        }
      ],
      "name": "mint_rights",
      "outputs": [],
      "stateMutability": "nonpayable",
      "type": "function"
    },
    {
      "inputs": [
        {
          "internalType": "address",
          "name": "",
          "type": "address"
        },
        {
          "internalType": "address",
          "name": "",
          "type": "address"
        },
        {
          "internalType": "uint256[]",
          "name": "",
          "type": "uint256[]"
        },
        {
          "internalType": "uint256[]",
          "name": "",
          "type": "uint256[]"
        },
        {
          "internalType": "uint256[]",
          "name": "",
          "type": "uint256[]"
        },
        {
          "internalType": "bytes",
          "name": "",
          "type": "bytes"
        }
      ],
      "name": "onERC1155BatchReceived",
      "outputs": [
        {
          "internalType": "bytes4",
          "name": "",
          "type": "bytes4"
        }
      ],
      "stateMutability": "nonpayable",
      "type": "function"
    },
    {
      "inputs": [
        {
          "internalType": "address",
          "name": "",
          "type": "address"
        },
        {
          "internalType": "address",
          "name": "",
          "type": "address"
        },
        {
          "internalType": "uint256",
          "name": "",
          "type": "uint256"
        },
        {
          "internalType": "uint256",
          "name": "",
          "type": "uint256"
        },
        {
          "internalType": "uint256",
          "name": "",
          "type": "uint256"
        },
        {
          "internalType": "bytes",
          "name": "",
          "type": "bytes"
        }
      ],
      "name": "onERC1155Received",
      "outputs": [
        {
          "internalType": "bytes4",
          "name": "",
          "type": "bytes4"
        }
      ],
      "stateMutability": "nonpayable",
      "type": "function"
    },
    {
      "inputs": [],
      "name": "pause",
      "outputs": [],
      "stateMutability": "nonpayable",
      "type": "function"
    },
    {
      "inputs": [],
      "name": "paused",
      "outputs": [
        {
          "internalType": "bool",
          "name": "",
          "type": "bool"
        }
      ],
      "stateMutability": "view",
      "type": "function"
    },
    {
      "inputs": [
        {
          "internalType": "uint256",
          "name": "",
          "type": "uint256"
        }
      ],
      "name": "properties",
      "outputs": [
        {
          "internalType": "bytes",
          "name": "parentHash",
          "type": "bytes"
        },
        {
          "internalType": "address",
          "name": "propertyAddress",
          "type": "address"
        }
      ],
      "stateMutability": "view",
      "type": "function"
    },
    {
      "inputs": [
        {
          "internalType": "bytes32",
          "name": "role",
          "type": "bytes32"
        },
        {
          "internalType": "address",
          "name": "account",
          "type": "address"
        }
      ],
      "name": "renounceRole",
      "outputs": [],
      "stateMutability": "nonpayable",
      "type": "function"
    },
    {
      "inputs": [
        {
          "internalType": "bytes32",
          "name": "role",
          "type": "bytes32"
        },
        {
          "internalType": "address",
          "name": "account",
          "type": "address"
        }
      ],
      "name": "revokeRole",
      "outputs": [],
      "stateMutability": "nonpayable",
      "type": "function"
    },
    {
      "inputs": [
        {
          "internalType": "address",
          "name": "from",
          "type": "address"
        },
        {
          "internalType": "address",
          "name": "to",
          "type": "address"
        },
        {
          "internalType": "uint256[]",
          "name": "ids",
          "type": "uint256[]"
        },
        {
          "internalType": "uint256[]",
          "name": "amounts",
          "type": "uint256[]"
        },
        {
          "internalType": "uint256[]",
          "name": "prices",
          "type": "uint256[]"
        },
        {
          "internalType": "bytes",
          "name": "data",
          "type": "bytes"
        }
      ],
      "name": "safeBatchTransferFrom",
      "outputs": [],
      "stateMutability": "nonpayable",
      "type": "function"
    },
    {
      "inputs": [
        {
          "internalType": "address",
          "name": "from",
          "type": "address"
        },
        {
          "internalType": "address",
          "name": "to",
          "type": "address"
        },
        {
          "internalType": "uint256",
          "name": "id",
          "type": "uint256"
        },
        {
          "internalType": "uint256",
          "name": "amount",
          "type": "uint256"
        },
        {
          "internalType": "uint256",
          "name": "price",
          "type": "uint256"
        },
        {
          "internalType": "bytes",
          "name": "data",
          "type": "bytes"
        }
      ],
      "name": "safeTransferFrom",
      "outputs": [],
      "stateMutability": "nonpayable",
      "type": "function"
    },
    {
      "inputs": [
        {
          "internalType": "address",
          "name": "operator",
          "type": "address"
        },
        {
          "internalType": "bool",
          "name": "approved",
          "type": "bool"
        }
      ],
      "name": "setApprovalForAll",
      "outputs": [],
      "stateMutability": "nonpayable",
      "type": "function"
    },
    {
      "inputs": [
        {
          "internalType": "bytes4",
          "name": "interfaceId",
          "type": "bytes4"
        }
      ],
      "name": "supportsInterface",
      "outputs": [
        {
          "internalType": "bool",
          "name": "",
          "type": "bool"
        }
      ],
      "stateMutability": "view",
      "type": "function"
    },
    {
      "inputs": [],
      "name": "title",
      "outputs": [
        {
          "internalType": "uint256",
          "name": "",
          "type": "uint256"
        }
      ],
      "stateMutability": "view",
      "type": "function"
    },
    {
      "inputs": [
        {
          "internalType": "uint256",
          "name": "id",
          "type": "uint256"
        }
      ],
      "name": "tokensPrice",
      "outputs": [
        {
          "internalType": "uint256",
          "name": "",
          "type": "uint256"
        }
      ],
      "stateMutability": "view",
      "type": "function"
    },
    {
      "inputs": [
        {
          "internalType": "uint256",
          "name": "id",
          "type": "uint256"
        }
      ],
      "name": "totalSupply",
      "outputs": [
        {
          "internalType": "uint256",
          "name": "",
          "type": "uint256"
        }
      ],
      "stateMutability": "view",
      "type": "function"
    },
    {
      "inputs": [
        {
          "internalType": "address",
          "name": "to",
          "type": "address"
        },
        {
          "internalType": "uint256",
          "name": "id",
          "type": "uint256"
        },
        {
          "internalType": "uint256",
          "name": "amount",
          "type": "uint256"
        },
        {
          "internalType": "uint256",
          "name": "price",
          "type": "uint256"
        },
        {
          "internalType": "bytes",
          "name": "data",
          "type": "bytes"
        }
      ],
      "name": "transferRights",
      "outputs": [],
      "stateMutability": "nonpayable",
      "type": "function"
    },
    {
      "inputs": [],
      "name": "unpause",
      "outputs": [],
      "stateMutability": "nonpayable",
      "type": "function"
    },
    {
      "inputs": [
        {
          "internalType": "uint256",
          "name": "",
          "type": "uint256"
        }
      ],
      "name": "uri",
      "outputs": [
        {
          "internalType": "string",
          "name": "",
          "type": "string"
        }
      ],
      "stateMutability": "view",
      "type": "function"
    }
  ],
  "bytecode": "0x608060405230600a60006101000a81548173ffffffffffffffffffffffffffffffffffffffff021916908373ffffffffffffffffffffffffffffffffffffffff1602179055503480156200005257600080fd5b5060405162005fdd38038062005fdd833981810160405281019062000078919062001023565b60008060006101000a81548160ff021916908315150217905550620000a384620002a360201b60201c565b620000b86000801b33620002bf60201b60201c565b620000ea7fe1dcbdb91df27212a29bc27177c840cf2f819ecf2187432e1fac86c2dd5dfca984620002bf60201b60201c565b620001016002620002d560201b620013391760201c565b620001186002620002eb60201b6200134f1760201c565b6009819055508160086000600954815260200190815260200160002060000190805190602001906200014c92919062000da4565b508060086000600954815260200190815260200160002060010160006101000a81548173ffffffffffffffffffffffffffffffffffffffff021916908373ffffffffffffffffffffffffffffffffffffffff1602179055507fe7728328277361a76a29cdcb4681be86dbbf1934457953cc0e4151f56a8112446009548284604051620001db939291906200143d565b60405180910390a16200022b600a60009054906101000a900473ffffffffffffffffffffffffffffffffffffffff16600180600060405180602001604052806000815250620002f960201b60201c565b600860006009548152602001908152602001600020600201604051806040016040528060018152602001600081525090806001815401808255809150506001900390600052602060002090600202016000909190919091506000820151816000015560208201518160010155505050505050620018ef565b8060079080519060200190620002bb92919062000e35565b5050565b620002d182826200055460201b60201c565b5050565b6001816000016000828254019250508190555050565b600081600001549050919050565b600073ffffffffffffffffffffffffffffffffffffffff168573ffffffffffffffffffffffffffffffffffffffff1614156200036c576040517f08c379a00000000000000000000000000000000000000000000000000000000081526004016200036390620013b5565b60405180910390fd5b6200037d846200064560201b60201c565b15620003c0576040517f08c379a0000000000000000000000000000000000000000000000000000000008152600401620003b790620013f9565b60405180910390fd5b6000620003d26200066660201b60201c565b90506200041c81600088620003ed896200066e60201b60201c565b620003fe896200066e60201b60201c565b6200040f896200066e60201b60201c565b886200073760201b60201c565b836003600087815260200190815260200160002060008873ffffffffffffffffffffffffffffffffffffffff1673ffffffffffffffffffffffffffffffffffffffff16815260200190815260200160002060008282546200047e919062001590565b9250508190555082600660008781526020019081526020016000206000828254620004aa919062001590565b925050819055508573ffffffffffffffffffffffffffffffffffffffff16600073ffffffffffffffffffffffffffffffffffffffff168273ffffffffffffffffffffffffffffffffffffffff167f6dd19f7a3c9876a81d9697154a355010276a46cbc419c0698e58907c3dec452a8888886040516200052c9392919062001481565b60405180910390a46200054c816000888888888862000b0060201b60201c565b505050505050565b62000566828262000cf360201b60201c565b6200064157600180600084815260200190815260200160002060000160008373ffffffffffffffffffffffffffffffffffffffff1673ffffffffffffffffffffffffffffffffffffffff16815260200190815260200160002060006101000a81548160ff021916908315150217905550620005e66200066660201b60201c565b73ffffffffffffffffffffffffffffffffffffffff168173ffffffffffffffffffffffffffffffffffffffff16837f2f8788117e7eff1d82e926ec794901d17c78024a50270940304540a733656f0d60405160405180910390a45b5050565b6000806200065e8362000d5e60201b6200113e1760201c565b119050919050565b600033905090565b60606000600167ffffffffffffffff811115620006b4577f4e487b7100000000000000000000000000000000000000000000000000000000600052604160045260246000fd5b604051908082528060200260200182016040528015620006e35781602001602082028036833780820191505090505b509050828160008151811062000722577f4e487b7100000000000000000000000000000000000000000000000000000000600052603260045260246000fd5b60200260200101818152505080915050919050565b6200074762000d7b60201b60201c565b156200078a576040517f08c379a00000000000000000000000000000000000000000000000000000000081526004016200078190620013d7565b60405180910390fd5b339650600073ffffffffffffffffffffffffffffffffffffffff168673ffffffffffffffffffffffffffffffffffffffff161415620009425760005b845181101562000940578381815181106200080a577f4e487b7100000000000000000000000000000000000000000000000000000000600052603260045260246000fd5b60200260200101516005600087848151811062000850577f4e487b7100000000000000000000000000000000000000000000000000000000600052603260045260246000fd5b60200260200101518152602001908152602001600020600082825462000877919062001590565b92505081905550828181518110620008b8577f4e487b7100000000000000000000000000000000000000000000000000000000600052603260045260246000fd5b602002602001015160066000878481518110620008fe577f4e487b7100000000000000000000000000000000000000000000000000000000600052603260045260246000fd5b60200260200101518152602001908152602001600020600082825462000925919062001590565b92505081905550806200093890620016fe565b9050620007c6565b505b600073ffffffffffffffffffffffffffffffffffffffff168573ffffffffffffffffffffffffffffffffffffffff16141562000af75760005b845181101562000af557838181518110620009bf577f4e487b7100000000000000000000000000000000000000000000000000000000600052603260045260246000fd5b60200260200101516005600087848151811062000a05577f4e487b7100000000000000000000000000000000000000000000000000000000600052603260045260246000fd5b60200260200101518152602001908152602001600020600082825462000a2c9190620015ed565b9250508190555082818151811062000a6d577f4e487b7100000000000000000000000000000000000000000000000000000000600052603260045260246000fd5b60200260200101516006600087848151811062000ab3577f4e487b7100000000000000000000000000000000000000000000000000000000600052603260045260246000fd5b60200260200101518152602001908152602001600020600082825462000ada919062001590565b925050819055508062000aed90620016fe565b90506200097b565b505b50505050505050565b62000b2c8573ffffffffffffffffffffffffffffffffffffffff1662000d9160201b6200135d1760201c565b1562000cea578473ffffffffffffffffffffffffffffffffffffffff1663ce6d05dc8888878787876040518763ffffffff1660e01b815260040162000b7796959493929190620012fb565b602060405180830381600087803b15801562000b9257600080fd5b505af192505050801562000bc657506040513d601f19601f8201168201806040525081019062000bc3919062000ff7565b60015b62000c5e5762000bd5620017f7565b8062000be2575062000c21565b806040517f08c379a000000000000000000000000000000000000000000000000000000000815260040162000c1891906200136f565b60405180910390fd5b6040517f08c379a000000000000000000000000000000000000000000000000000000000815260040162000c55906200141b565b60405180910390fd5b63ce6d05dc60e01b7bffffffffffffffffffffffffffffffffffffffffffffffffffffffff1916817bffffffffffffffffffffffffffffffffffffffffffffffffffffffff19161462000ce8576040517f08c379a000000000000000000000000000000000000000000000000000000000815260040162000cdf9062001393565b60405180910390fd5b505b50505050505050565b60006001600084815260200190815260200160002060000160008373ffffffffffffffffffffffffffffffffffffffff1673ffffffffffffffffffffffffffffffffffffffff16815260200190815260200160002060009054906101000a900460ff16905092915050565b600060056000838152602001908152602001600020549050919050565b60008060009054906101000a900460ff16905090565b600080823b905060008111915050919050565b82805462000db290620016c8565b90600052602060002090601f01602090048101928262000dd6576000855562000e22565b82601f1062000df157805160ff191683800117855562000e22565b8280016001018555821562000e22579182015b8281111562000e2157825182559160200191906001019062000e04565b5b50905062000e31919062000ec6565b5090565b82805462000e4390620016c8565b90600052602060002090601f01602090048101928262000e67576000855562000eb3565b82601f1062000e8257805160ff191683800117855562000eb3565b8280016001018555821562000eb3579182015b8281111562000eb257825182559160200191906001019062000e95565b5b50905062000ec2919062000ec6565b5090565b5b8082111562000ee157600081600090555060010162000ec7565b5090565b600062000efc62000ef684620014f2565b620014be565b90508281526020810184848401111562000f1557600080fd5b62000f2284828562001692565b509392505050565b600062000f4162000f3b8462001525565b620014be565b90508281526020810184848401111562000f5a57600080fd5b62000f6784828562001692565b509392505050565b60008151905062000f8081620018bb565b92915050565b60008151905062000f9781620018d5565b92915050565b600082601f83011262000faf57600080fd5b815162000fc184826020860162000ee5565b91505092915050565b600082601f83011262000fdc57600080fd5b815162000fee84826020860162000f2a565b91505092915050565b6000602082840312156200100a57600080fd5b60006200101a8482850162000f86565b91505092915050565b600080600080608085870312156200103a57600080fd5b600085015167ffffffffffffffff8111156200105557600080fd5b620010638782880162000fca565b9450506020620010768782880162000f6f565b935050604085015167ffffffffffffffff8111156200109457600080fd5b620010a28782880162000f9d565b9250506060620010b58782880162000f6f565b91505092959194509250565b620010cc8162001628565b82525050565b6000620010df8262001558565b620010eb81856200156e565b9350620010fd81856020860162001692565b6200110881620017d9565b840191505092915050565b6000620011208262001563565b6200112c81856200157f565b93506200113e81856020860162001692565b6200114981620017d9565b840191505092915050565b6000620011636026836200157f565b91507f51756573743a204552433131353552656365697665722072656a65637465642060008301527f746f6b656e7300000000000000000000000000000000000000000000000000006020830152604082019050919050565b6000620011cb601f836200157f565b91507f51756573743a206d696e7420746f20746865207a65726f2061646472657373006000830152602082019050919050565b60006200120d601e836200157f565b91507f517565743a206e6f207472616e73666572207768696c652070617573656400006000830152602082019050919050565b60006200124f601b836200157f565b91507f51756573743a20746f6b656e20616c7265616479206d696e74656400000000006000830152602082019050919050565b6000620012916032836200157f565b91507f51756573743a207472616e7366657220746f206e6f6e2045524331313535526560008301527f63656976657220696d706c656d656e74657200000000000000000000000000006020830152604082019050919050565b620012f58162001688565b82525050565b600060c082019050620013126000830189620010c1565b620013216020830188620010c1565b620013306040830187620012ea565b6200133f6060830186620012ea565b6200134e6080830185620012ea565b81810360a0830152620013628184620010d2565b9050979650505050505050565b600060208201905081810360008301526200138b818462001113565b905092915050565b60006020820190508181036000830152620013ae8162001154565b9050919050565b60006020820190508181036000830152620013d081620011bc565b9050919050565b60006020820190508181036000830152620013f281620011fe565b9050919050565b60006020820190508181036000830152620014148162001240565b9050919050565b60006020820190508181036000830152620014368162001282565b9050919050565b6000606082019050620014546000830186620012ea565b620014636020830185620010c1565b8181036040830152620014778184620010d2565b9050949350505050565b6000606082019050620014986000830186620012ea565b620014a76020830185620012ea565b620014b66040830184620012ea565b949350505050565b6000604051905081810181811067ffffffffffffffff82111715620014e857620014e7620017aa565b5b8060405250919050565b600067ffffffffffffffff82111562001510576200150f620017aa565b5b601f19601f8301169050602081019050919050565b600067ffffffffffffffff821115620015435762001542620017aa565b5b601f19601f8301169050602081019050919050565b600081519050919050565b600081519050919050565b600082825260208201905092915050565b600082825260208201905092915050565b60006200159d8262001688565b9150620015aa8362001688565b9250827fffffffffffffffffffffffffffffffffffffffffffffffffffffffffffffffff03821115620015e257620015e16200174c565b5b828201905092915050565b6000620015fa8262001688565b9150620016078362001688565b9250828210156200161d576200161c6200174c565b5b828203905092915050565b6000620016358262001668565b9050919050565b60007fffffffff0000000000000000000000000000000000000000000000000000000082169050919050565b600073ffffffffffffffffffffffffffffffffffffffff82169050919050565b6000819050919050565b60005b83811015620016b257808201518184015260208101905062001695565b83811115620016c2576000848401525b50505050565b60006002820490506001821680620016e157607f821691505b60208210811415620016f857620016f76200177b565b5b50919050565b60006200170b8262001688565b91507fffffffffffffffffffffffffffffffffffffffffffffffffffffffffffffffff8214156200174157620017406200174c565b5b600182019050919050565b7f4e487b7100000000000000000000000000000000000000000000000000000000600052601160045260246000fd5b7f4e487b7100000000000000000000000000000000000000000000000000000000600052602260045260246000fd5b7f4e487b7100000000000000000000000000000000000000000000000000000000600052604160045260246000fd5b6000601f19601f8301169050919050565b60008160e01c9050919050565b600060443d10156200180957620018b8565b60046000803e6200181c600051620017ea565b6308c379a081146200182f5750620018b8565b60405160043d036004823e80513d602482011167ffffffffffffffff821117156200185d57505050620018b8565b808201805167ffffffffffffffff8111156200187e575050505050620018b8565b8060208301013d85018111156200189b57505050505050620018b8565b620018a682620017d9565b60208401016040528296505050505050505b90565b620018c68162001628565b8114620018d257600080fd5b50565b620018e0816200163c565b8114620018ec57600080fd5b50565b6146de80620018ff6000396000f3fe608060405234801561001057600080fd5b50600436106102055760003560e01c80636b98fd1e1161011a578063a22cb465116100ad578063d11a57ec1161007c578063d11a57ec14610600578063d547741f1461061e578063dd50e28f1461063a578063e985e9c514610658578063f7b108081461068857610205565b8063a22cb46514610554578063bd85b03914610570578063c6c1954a146105a0578063ce6d05dc146105d057610205565b80638456cb59116100e95780638456cb59146104cc578063854905b6146104d657806391d1485414610506578063a217fddf1461053657610205565b80636b98fd1e1461045657806372f0cbef1461047257806375a9ba5d146104905780638052f5d3146104ae57610205565b806333d9eeba1161019d5780634d47fddb1161016c5780634d47fddb146103a05780634e1273f4146103bc5780634f558e79146103ec578063583efda71461041c5780635c975abb1461043857610205565b806333d9eeba1461033e57806336568abe1461035c5780633f4ba83a146103785780634a79d50c1461038257610205565b8063248a9ca3116101d9578063248a9ca3146102b85780632d649491146102e85780632f2ff15d14610306578063309b646f1461032257610205565b8062fdd58e1461020a57806301ffc9a71461023a5780630e89341c1461026a5780630fad0d3a1461029a575b600080fd5b610224600480360381019061021f91906131b1565b6106b9565b6040516102319190614104565b60405180910390f35b610254600480360381019061024f919061334d565b610783565b6040516102619190613e01565b60405180910390f35b610284600480360381019061027f919061339f565b610935565b6040516102919190613e82565b60405180910390f35b6102a26109c9565b6040516102af9190614104565b60405180910390f35b6102d260048036038101906102cd91906132e8565b6109ce565b6040516102df9190613e1c565b60405180910390f35b6102f06109ee565b6040516102fd9190614104565b60405180910390f35b610320600480360381019061031b9190613311565b6109f3565b005b61033c600480360381019061033791906133c8565b610a1c565b005b610346610afe565b6040516103539190614104565b60405180910390f35b61037660048036038101906103719190613311565b610b08565b005b610380610b8b565b005b61038a610c05565b6040516103979190614104565b60405180910390f35b6103ba60048036038101906103b591906130d4565b610c0a565b005b6103d660048036038101906103d1919061327c565b610cee565b6040516103e39190613d93565b60405180910390f35b6104066004803603810190610401919061339f565b610e9f565b6040516104139190613e01565b60405180910390f35b610436600480360381019061043191906131ed565b610eb3565b005b610440610eea565b60405161044d9190613e01565b60405180910390f35b610470600480360381019061046b9190612feb565b610f00565b005b61047a610feb565b6040516104879190614104565b60405180910390f35b610498610ff0565b6040516104a59190613c93565b60405180910390f35b6104b661101a565b6040516104c39190614104565b60405180910390f35b6104d461101f565b005b6104f060048036038101906104eb919061339f565b611099565b6040516104fd9190614104565b60405180910390f35b610520600480360381019061051b9190613311565b6110b6565b60405161052d9190613e01565b60405180910390f35b61053e611121565b60405161054b9190613e1c565b60405180910390f35b61056e60048036038101906105699190613175565b611128565b005b61058a6004803603810190610585919061339f565b61113e565b6040516105979190614104565b60405180910390f35b6105ba60048036038101906105b59190612feb565b61115b565b6040516105c79190613e37565b60405180910390f35b6105ea60048036038101906105e591906130d4565b611171565b6040516105f79190613e37565b60405180910390f35b610608611187565b6040516106159190613e1c565b60405180910390f35b61063860048036038101906106339190613311565b6111ab565b005b6106426111d4565b60405161064f9190614104565b60405180910390f35b610672600480360381019061066d9190612faf565b6111d9565b60405161067f9190613e01565b60405180910390f35b6106a2600480360381019061069d919061339f565b61126d565b6040516106b0929190613e52565b60405180910390f35b60008073ffffffffffffffffffffffffffffffffffffffff168373ffffffffffffffffffffffffffffffffffffffff16141561072a576040517f08c379a000000000000000000000000000000000000000000000000000000000815260040161072190614064565b60405180910390fd5b6003600083815260200190815260200160002060008473ffffffffffffffffffffffffffffffffffffffff1673ffffffffffffffffffffffffffffffffffffffff16815260200190815260200160002054905092915050565b60007f2399fb1f000000000000000000000000000000000000000000000000000000007bffffffffffffffffffffffffffffffffffffffffffffffffffffffff1916827bffffffffffffffffffffffffffffffffffffffffffffffffffffffff1916148061084e57507f0e89341c000000000000000000000000000000000000000000000000000000007bffffffffffffffffffffffffffffffffffffffffffffffffffffffff1916827bffffffffffffffffffffffffffffffffffffffffffffffffffffffff1916145b806108b657507f01ffc9a7000000000000000000000000000000000000000000000000000000007bffffffffffffffffffffffffffffffffffffffffffffffffffffffff1916827bffffffffffffffffffffffffffffffffffffffffffffffffffffffff1916145b8061091e57507fda8def73000000000000000000000000000000000000000000000000000000007bffffffffffffffffffffffffffffffffffffffffffffffffffffffff1916827bffffffffffffffffffffffffffffffffffffffffffffffffffffffff1916145b8061092e575061092d82611370565b5b9050919050565b60606007805461094490614459565b80601f016020809104026020016040519081016040528092919081815260200182805461097090614459565b80156109bd5780601f10610992576101008083540402835291602001916109bd565b820191906000526020600020905b8154815290600101906020018083116109a057829003601f168201915b50505050509050919050565b600381565b600060016000838152602001908152602001600020600101549050919050565b600581565b6109fc826109ce565b610a0d81610a086113ea565b6113f2565b610a17838361148f565b505050565b7fe1dcbdb91df27212a29bc27177c840cf2f819ecf2187432e1fac86c2dd5dfca9610a4e81610a496113ea565b6113f2565b610a8d600a60009054906101000a900473ffffffffffffffffffffffffffffffffffffffff16846001856040518060200160405280600081525061156f565b600860006009548152602001908152602001600020600201604051806040016040528085815260200184815250908060018154018082558091505060019003906000526020600020906002020160009091909190915060008201518160000155602082015181600101555050505050565b6000600954905090565b610b106113ea565b73ffffffffffffffffffffffffffffffffffffffff168173ffffffffffffffffffffffffffffffffffffffff1614610b7d576040517f08c379a0000000000000000000000000000000000000000000000000000000008152600401610b74906140e4565b60405180910390fd5b610b878282611786565b5050565b610bbc7fe1dcbdb91df27212a29bc27177c840cf2f819ecf2187432e1fac86c2dd5dfca9610bb76113ea565b6110b6565b610bfb576040517f08c379a0000000000000000000000000000000000000000000000000000000008152600401610bf290614044565b60405180910390fd5b610c03611868565b565b600181565b610c12610eea565b15610c52576040517f08c379a0000000000000000000000000000000000000000000000000000000008152600401610c4990613f64565b60405180910390fd5b3073ffffffffffffffffffffffffffffffffffffffff168673ffffffffffffffffffffffffffffffffffffffff161480610c995750610c9886610c936113ea565b6111d9565b5b610cd8576040517f08c379a0000000000000000000000000000000000000000000000000000000008152600401610ccf90613fe4565b60405180910390fd5b610ce6868686868686611909565b505050505050565b60608151835114610d34576040517f08c379a0000000000000000000000000000000000000000000000000000000008152600401610d2b906140a4565b60405180910390fd5b6000835167ffffffffffffffff811115610d77577f4e487b7100000000000000000000000000000000000000000000000000000000600052604160045260246000fd5b604051908082528060200260200182016040528015610da55781602001602082028036833780820191505090505b50905060005b8451811015610e9457610e3e858281518110610df0577f4e487b7100000000000000000000000000000000000000000000000000000000600052603260045260246000fd5b6020026020010151858381518110610e31577f4e487b7100000000000000000000000000000000000000000000000000000000600052603260045260246000fd5b60200260200101516106b9565b828281518110610e77577f4e487b7100000000000000000000000000000000000000000000000000000000600052603260045260246000fd5b60200260200101818152505080610e8d9061448b565b9050610dab565b508091505092915050565b600080610eab8361113e565b119050919050565b610ee3600a60009054906101000a900473ffffffffffffffffffffffffffffffffffffffff168686868686610c0a565b5050505050565b60008060009054906101000a900460ff16905090565b610f08610eea565b15610f48576040517f08c379a0000000000000000000000000000000000000000000000000000000008152600401610f3f90613f64565b60405180910390fd5b610f506113ea565b73ffffffffffffffffffffffffffffffffffffffff168673ffffffffffffffffffffffffffffffffffffffff161480610f965750610f9586610f906113ea565b6111d9565b5b610fd5576040517f08c379a0000000000000000000000000000000000000000000000000000000008152600401610fcc90613ee4565b60405180910390fd5b610fe3868686868686611be3565b505050505050565b600281565b6000600a60009054906101000a900473ffffffffffffffffffffffffffffffffffffffff16905090565b600481565b6110507fe1dcbdb91df27212a29bc27177c840cf2f819ecf2187432e1fac86c2dd5dfca961104b6113ea565b6110b6565b61108f576040517f08c379a000000000000000000000000000000000000000000000000000000000815260040161108690614004565b60405180910390fd5b611097611fa0565b565b600060066000838152602001908152602001600020549050919050565b60006001600084815260200190815260200160002060000160008373ffffffffffffffffffffffffffffffffffffffff1673ffffffffffffffffffffffffffffffffffffffff16815260200190815260200160002060009054906101000a900460ff16905092915050565b6000801b81565b61113a6111336113ea565b8383612042565b5050565b600060056000838152602001908152602001600020549050919050565b600063c6c1954a60e01b90509695505050505050565b600063ce6d05dc60e01b90509695505050505050565b7fe1dcbdb91df27212a29bc27177c840cf2f819ecf2187432e1fac86c2dd5dfca981565b6111b4826109ce565b6111c5816111c06113ea565b6113f2565b6111cf8383611786565b505050565b600681565b6000600460008473ffffffffffffffffffffffffffffffffffffffff1673ffffffffffffffffffffffffffffffffffffffff16815260200190815260200160002060008373ffffffffffffffffffffffffffffffffffffffff1673ffffffffffffffffffffffffffffffffffffffff16815260200190815260200160002060009054906101000a900460ff16905092915050565b600860205280600052604060002060009150905080600001805461129090614459565b80601f01602080910402602001604051908101604052809291908181526020018280546112bc90614459565b80156113095780601f106112de57610100808354040283529160200191611309565b820191906000526020600020905b8154815290600101906020018083116112ec57829003601f168201915b5050505050908060010160009054906101000a900473ffffffffffffffffffffffffffffffffffffffff16905082565b6001816000016000828254019250508190555050565b600081600001549050919050565b600080823b905060008111915050919050565b60007f7965db0b000000000000000000000000000000000000000000000000000000007bffffffffffffffffffffffffffffffffffffffffffffffffffffffff1916827bffffffffffffffffffffffffffffffffffffffffffffffffffffffff191614806113e357506113e2826121af565b5b9050919050565b600033905090565b6113fc82826110b6565b61148b576114218173ffffffffffffffffffffffffffffffffffffffff166014612229565b61142f8360001c6020612229565b604051602001611440929190613c59565b6040516020818303038152906040526040517f08c379a00000000000000000000000000000000000000000000000000000000081526004016114829190613e82565b60405180910390fd5b5050565b61149982826110b6565b61156b57600180600084815260200190815260200160002060000160008373ffffffffffffffffffffffffffffffffffffffff1673ffffffffffffffffffffffffffffffffffffffff16815260200190815260200160002060006101000a81548160ff0219169083151502179055506115106113ea565b73ffffffffffffffffffffffffffffffffffffffff168173ffffffffffffffffffffffffffffffffffffffff16837f2f8788117e7eff1d82e926ec794901d17c78024a50270940304540a733656f0d60405160405180910390a45b5050565b600073ffffffffffffffffffffffffffffffffffffffff168573ffffffffffffffffffffffffffffffffffffffff1614156115df576040517f08c379a00000000000000000000000000000000000000000000000000000000081526004016115d690613f44565b60405180910390fd5b6115e884610e9f565b15611628576040517f08c379a000000000000000000000000000000000000000000000000000000000815260040161161f90613fc4565b60405180910390fd5b60006116326113ea565b905061165c8160008861164489612523565b61164d89612523565b61165689612523565b886125e9565b836003600087815260200190815260200160002060008873ffffffffffffffffffffffffffffffffffffffff1673ffffffffffffffffffffffffffffffffffffffff16815260200190815260200160002060008282546116bc919061428b565b92505081905550826006600087815260200190815260200160002060008282546116e6919061428b565b925050819055508573ffffffffffffffffffffffffffffffffffffffff16600073ffffffffffffffffffffffffffffffffffffffff168273ffffffffffffffffffffffffffffffffffffffff167f6dd19f7a3c9876a81d9697154a355010276a46cbc419c0698e58907c3dec452a8888886040516117669392919061411f565b60405180910390a461177e816000888888888861298d565b505050505050565b61179082826110b6565b156118645760006001600084815260200190815260200160002060000160008373ffffffffffffffffffffffffffffffffffffffff1673ffffffffffffffffffffffffffffffffffffffff16815260200190815260200160002060006101000a81548160ff0219169083151502179055506118096113ea565b73ffffffffffffffffffffffffffffffffffffffff168173ffffffffffffffffffffffffffffffffffffffff16837ff6391f5c32d9c69d2a47ea670b442974b53935d1edc7fd64eb21e047a839171b60405160405180910390a45b5050565b611870610eea565b6118af576040517f08c379a00000000000000000000000000000000000000000000000000000000081526004016118a690613ec4565b60405180910390fd5b60008060006101000a81548160ff0219169083151502179055507f5db9ee0a495bf2e6ff9c91a7834c1ba4fdd244a5e8aa4e537bd38aeae4b073aa6118f26113ea565b6040516118ff9190613c93565b60405180910390a1565b611911610eea565b15611951576040517f08c379a000000000000000000000000000000000000000000000000000000000815260040161194890613f64565b60405180910390fd5b600073ffffffffffffffffffffffffffffffffffffffff168573ffffffffffffffffffffffffffffffffffffffff1614156119c1576040517f08c379a00000000000000000000000000000000000000000000000000000000081526004016119b890613fa4565b60405180910390fd5b60006119cb6113ea565b90506119f48188886119dc89612523565b6119e589612523565b6119ee89612523565b886125e9565b60006003600087815260200190815260200160002060008973ffffffffffffffffffffffffffffffffffffffff1673ffffffffffffffffffffffffffffffffffffffff16815260200190815260200160002054905084811015611a8c576040517f08c379a0000000000000000000000000000000000000000000000000000000008152600401611a8390613f24565b60405180910390fd5b8481036003600088815260200190815260200160002060008a73ffffffffffffffffffffffffffffffffffffffff1673ffffffffffffffffffffffffffffffffffffffff16815260200190815260200160002081905550846003600088815260200190815260200160002060008973ffffffffffffffffffffffffffffffffffffffff1673ffffffffffffffffffffffffffffffffffffffff1681526020019081526020016000206000828254611b43919061428b565b925050819055508673ffffffffffffffffffffffffffffffffffffffff168873ffffffffffffffffffffffffffffffffffffffff168373ffffffffffffffffffffffffffffffffffffffff167f6dd19f7a3c9876a81d9697154a355010276a46cbc419c0698e58907c3dec452a898989604051611bc29392919061411f565b60405180910390a4611bd98289898989898961298d565b5050505050505050565b611beb610eea565b15611c2b576040517f08c379a0000000000000000000000000000000000000000000000000000000008152600401611c2290613f64565b60405180910390fd5b82518451148015611c3d575081518451145b611c7c576040517f08c379a0000000000000000000000000000000000000000000000000000000008152600401611c73906140c4565b60405180910390fd5b600073ffffffffffffffffffffffffffffffffffffffff168573ffffffffffffffffffffffffffffffffffffffff161415611cec576040517f08c379a0000000000000000000000000000000000000000000000000000000008152600401611ce390613fa4565b60405180910390fd5b6000611cf66113ea565b9050611d07818888888888886125e9565b60005b8551811015611f07576000868281518110611d4e577f4e487b7100000000000000000000000000000000000000000000000000000000600052603260045260246000fd5b602002602001015190506000868381518110611d93577f4e487b7100000000000000000000000000000000000000000000000000000000600052603260045260246000fd5b6020026020010151905060006003600084815260200190815260200160002060008c73ffffffffffffffffffffffffffffffffffffffff1673ffffffffffffffffffffffffffffffffffffffff16815260200190815260200160002054905081811015611e35576040517f08c379a0000000000000000000000000000000000000000000000000000000008152600401611e2c90613f24565b60405180910390fd5b8181036003600085815260200190815260200160002060008d73ffffffffffffffffffffffffffffffffffffffff1673ffffffffffffffffffffffffffffffffffffffff16815260200190815260200160002081905550816003600085815260200190815260200160002060008c73ffffffffffffffffffffffffffffffffffffffff1673ffffffffffffffffffffffffffffffffffffffff1681526020019081526020016000206000828254611eec919061428b565b9250508190555050505080611f009061448b565b9050611d0a565b508573ffffffffffffffffffffffffffffffffffffffff168773ffffffffffffffffffffffffffffffffffffffff168273ffffffffffffffffffffffffffffffffffffffff167ffb75bd3a9b4b3ae2b21dc1a8aad1d9ab156f8d577b05320c9c84bc98780a3752888888604051611f8093929190613db5565b60405180910390a4611f9781888888888888612b60565b50505050505050565b611fa8610eea565b15611fe8576040517f08c379a0000000000000000000000000000000000000000000000000000000008152600401611fdf90613f64565b60405180910390fd5b60016000806101000a81548160ff0219169083151502179055507f62e78cea01bee320cd4e420270b5ea74000d11b0c9f74754ebdbfc544b05a25861202b6113ea565b6040516120389190613c93565b60405180910390a1565b8173ffffffffffffffffffffffffffffffffffffffff168373ffffffffffffffffffffffffffffffffffffffff1614156120b1576040517f08c379a00000000000000000000000000000000000000000000000000000000081526004016120a890614084565b60405180910390fd5b80600460008573ffffffffffffffffffffffffffffffffffffffff1673ffffffffffffffffffffffffffffffffffffffff16815260200190815260200160002060008473ffffffffffffffffffffffffffffffffffffffff1673ffffffffffffffffffffffffffffffffffffffff16815260200190815260200160002060006101000a81548160ff0219169083151502179055508173ffffffffffffffffffffffffffffffffffffffff168373ffffffffffffffffffffffffffffffffffffffff167f17307eab39ab6107e8899845ad3d59bd9653f200f220920489ca2b5937696c31836040516121a29190613e01565b60405180910390a3505050565b60007f08ac9096000000000000000000000000000000000000000000000000000000007bffffffffffffffffffffffffffffffffffffffffffffffffffffffff1916827bffffffffffffffffffffffffffffffffffffffffffffffffffffffff19161480612222575061222182612d33565b5b9050919050565b60606000600283600261223c91906142e1565b612246919061428b565b67ffffffffffffffff811115612285577f4e487b7100000000000000000000000000000000000000000000000000000000600052604160045260246000fd5b6040519080825280601f01601f1916602001820160405280156122b75781602001600182028036833780820191505090505b5090507f300000000000000000000000000000000000000000000000000000000000000081600081518110612315577f4e487b7100000000000000000000000000000000000000000000000000000000600052603260045260246000fd5b60200101907effffffffffffffffffffffffffffffffffffffffffffffffffffffffffffff1916908160001a9053507f78000000000000000000000000000000000000000000000000000000000000008160018151811061239f577f4e487b7100000000000000000000000000000000000000000000000000000000600052603260045260246000fd5b60200101907effffffffffffffffffffffffffffffffffffffffffffffffffffffffffffff1916908160001a905350600060018460026123df91906142e1565b6123e9919061428b565b90505b60018111156124d5577f3031323334353637383961626364656600000000000000000000000000000000600f861660108110612451577f4e487b7100000000000000000000000000000000000000000000000000000000600052603260045260246000fd5b1a60f81b82828151811061248e577f4e487b7100000000000000000000000000000000000000000000000000000000600052603260045260246000fd5b60200101907effffffffffffffffffffffffffffffffffffffffffffffffffffffffffffff1916908160001a905350600485901c9450806124ce9061442f565b90506123ec565b5060008414612519576040517f08c379a000000000000000000000000000000000000000000000000000000000815260040161251090613ea4565b60405180910390fd5b8091505092915050565b60606000600167ffffffffffffffff811115612568577f4e487b7100000000000000000000000000000000000000000000000000000000600052604160045260246000fd5b6040519080825280602002602001820160405280156125965781602001602082028036833780820191505090505b50905082816000815181106125d4577f4e487b7100000000000000000000000000000000000000000000000000000000600052603260045260246000fd5b60200260200101818152505080915050919050565b6125f1610eea565b15612631576040517f08c379a000000000000000000000000000000000000000000000000000000000815260040161262890613f84565b60405180910390fd5b339650600073ffffffffffffffffffffffffffffffffffffffff168673ffffffffffffffffffffffffffffffffffffffff1614156127dc5760005b84518110156127da578381815181106126ae577f4e487b7100000000000000000000000000000000000000000000000000000000600052603260045260246000fd5b6020026020010151600560008784815181106126f3577f4e487b7100000000000000000000000000000000000000000000000000000000600052603260045260246000fd5b602002602001015181526020019081526020016000206000828254612718919061428b565b92505081905550828181518110612758577f4e487b7100000000000000000000000000000000000000000000000000000000600052603260045260246000fd5b60200260200101516006600087848151811061279d577f4e487b7100000000000000000000000000000000000000000000000000000000600052603260045260246000fd5b6020026020010151815260200190815260200160002060008282546127c2919061428b565b92505081905550806127d39061448b565b905061266c565b505b600073ffffffffffffffffffffffffffffffffffffffff168573ffffffffffffffffffffffffffffffffffffffff1614156129845760005b845181101561298257838181518110612856577f4e487b7100000000000000000000000000000000000000000000000000000000600052603260045260246000fd5b60200260200101516005600087848151811061289b577f4e487b7100000000000000000000000000000000000000000000000000000000600052603260045260246000fd5b6020026020010151815260200190815260200160002060008282546128c0919061433b565b92505081905550828181518110612900577f4e487b7100000000000000000000000000000000000000000000000000000000600052603260045260246000fd5b602002602001015160066000878481518110612945577f4e487b7100000000000000000000000000000000000000000000000000000000600052603260045260246000fd5b60200260200101518152602001908152602001600020600082825461296a919061428b565b925050819055508061297b9061448b565b9050612814565b505b50505050505050565b6129ac8573ffffffffffffffffffffffffffffffffffffffff1661135d565b15612b57578473ffffffffffffffffffffffffffffffffffffffff1663ce6d05dc8888878787876040518763ffffffff1660e01b81526004016129f496959493929190613d2b565b602060405180830381600087803b158015612a0e57600080fd5b505af1925050508015612a3f57506040513d601f19601f82011682018060405250810190612a3c9190613376565b60015b612ace57612a4b61457f565b80612a565750612a93565b806040517f08c379a0000000000000000000000000000000000000000000000000000000008152600401612a8a9190613e82565b60405180910390fd5b6040517f08c379a0000000000000000000000000000000000000000000000000000000008152600401612ac590614024565b60405180910390fd5b63ce6d05dc60e01b7bffffffffffffffffffffffffffffffffffffffffffffffffffffffff1916817bffffffffffffffffffffffffffffffffffffffffffffffffffffffff191614612b55576040517f08c379a0000000000000000000000000000000000000000000000000000000008152600401612b4c90613f04565b60405180910390fd5b505b50505050505050565b612b7f8573ffffffffffffffffffffffffffffffffffffffff1661135d565b15612d2a578473ffffffffffffffffffffffffffffffffffffffff1663c6c1954a8888878787876040518763ffffffff1660e01b8152600401612bc796959493929190613cae565b602060405180830381600087803b158015612be157600080fd5b505af1925050508015612c1257506040513d601f19601f82011682018060405250810190612c0f9190613376565b60015b612ca157612c1e61457f565b80612c295750612c66565b806040517f08c379a0000000000000000000000000000000000000000000000000000000008152600401612c5d9190613e82565b60405180910390fd5b6040517f08c379a0000000000000000000000000000000000000000000000000000000008152600401612c9890614024565b60405180910390fd5b63c6c1954a60e01b7bffffffffffffffffffffffffffffffffffffffffffffffffffffffff1916817bffffffffffffffffffffffffffffffffffffffffffffffffffffffff191614612d28576040517f08c379a0000000000000000000000000000000000000000000000000000000008152600401612d1f90613f04565b60405180910390fd5b505b50505050505050565b60007f01ffc9a7000000000000000000000000000000000000000000000000000000007bffffffffffffffffffffffffffffffffffffffffffffffffffffffff1916827bffffffffffffffffffffffffffffffffffffffffffffffffffffffff1916149050919050565b6000612db0612dab84614187565b614156565b90508083825260208201905082856020860282011115612dcf57600080fd5b60005b85811015612dff5781612de58882612eb3565b845260208401935060208301925050600181019050612dd2565b5050509392505050565b6000612e1c612e17846141b3565b614156565b90508083825260208201905082856020860282011115612e3b57600080fd5b60005b85811015612e6b5781612e518882612f9a565b845260208401935060208301925050600181019050612e3e565b5050509392505050565b6000612e88612e83846141df565b614156565b905082815260208101848484011115612ea057600080fd5b612eab8482856143ed565b509392505050565b600081359050612ec281614635565b92915050565b600082601f830112612ed957600080fd5b8135612ee9848260208601612d9d565b91505092915050565b600082601f830112612f0357600080fd5b8135612f13848260208601612e09565b91505092915050565b600081359050612f2b8161464c565b92915050565b600081359050612f4081614663565b92915050565b600081359050612f558161467a565b92915050565b600081519050612f6a8161467a565b92915050565b600082601f830112612f8157600080fd5b8135612f91848260208601612e75565b91505092915050565b600081359050612fa981614691565b92915050565b60008060408385031215612fc257600080fd5b6000612fd085828601612eb3565b9250506020612fe185828601612eb3565b9150509250929050565b60008060008060008060c0878903121561300457600080fd5b600061301289828a01612eb3565b965050602061302389828a01612eb3565b955050604087013567ffffffffffffffff81111561304057600080fd5b61304c89828a01612ef2565b945050606087013567ffffffffffffffff81111561306957600080fd5b61307589828a01612ef2565b935050608087013567ffffffffffffffff81111561309257600080fd5b61309e89828a01612ef2565b92505060a087013567ffffffffffffffff8111156130bb57600080fd5b6130c789828a01612f70565b9150509295509295509295565b60008060008060008060c087890312156130ed57600080fd5b60006130fb89828a01612eb3565b965050602061310c89828a01612eb3565b955050604061311d89828a01612f9a565b945050606061312e89828a01612f9a565b935050608061313f89828a01612f9a565b92505060a087013567ffffffffffffffff81111561315c57600080fd5b61316889828a01612f70565b9150509295509295509295565b6000806040838503121561318857600080fd5b600061319685828601612eb3565b92505060206131a785828601612f1c565b9150509250929050565b600080604083850312156131c457600080fd5b60006131d285828601612eb3565b92505060206131e385828601612f9a565b9150509250929050565b600080600080600060a0868803121561320557600080fd5b600061321388828901612eb3565b955050602061322488828901612f9a565b945050604061323588828901612f9a565b935050606061324688828901612f9a565b925050608086013567ffffffffffffffff81111561326357600080fd5b61326f88828901612f70565b9150509295509295909350565b6000806040838503121561328f57600080fd5b600083013567ffffffffffffffff8111156132a957600080fd5b6132b585828601612ec8565b925050602083013567ffffffffffffffff8111156132d257600080fd5b6132de85828601612ef2565b9150509250929050565b6000602082840312156132fa57600080fd5b600061330884828501612f31565b91505092915050565b6000806040838503121561332457600080fd5b600061333285828601612f31565b925050602061334385828601612eb3565b9150509250929050565b60006020828403121561335f57600080fd5b600061336d84828501612f46565b91505092915050565b60006020828403121561338857600080fd5b600061339684828501612f5b565b91505092915050565b6000602082840312156133b157600080fd5b60006133bf84828501612f9a565b91505092915050565b600080604083850312156133db57600080fd5b60006133e985828601612f9a565b92505060206133fa85828601612f9a565b9150509250929050565b60006134108383613c3b565b60208301905092915050565b6134258161436f565b82525050565b60006134368261421f565b613440818561424d565b935061344b8361420f565b8060005b8381101561347c5781516134638882613404565b975061346e83614240565b92505060018101905061344f565b5085935050505092915050565b61349281614381565b82525050565b6134a18161438d565b82525050565b6134b081614397565b82525050565b60006134c18261422a565b6134cb818561425e565b93506134db8185602086016143fc565b6134e481614561565b840191505092915050565b60006134fa82614235565b613504818561426f565b93506135148185602086016143fc565b61351d81614561565b840191505092915050565b600061353382614235565b61353d8185614280565b935061354d8185602086016143fc565b80840191505092915050565b600061356660208361426f565b91507f537472696e67733a20686578206c656e67746820696e73756666696369656e746000830152602082019050919050565b60006135a660148361426f565b91507f5061757361626c653a206e6f74207061757365640000000000000000000000006000830152602082019050919050565b60006135e660308361426f565b91507f51756573743a207472616e736665722063616c6c6572206973206e6f74206f7760008301527f6e6572206e6f7220617070726f766564000000000000000000000000000000006020830152604082019050919050565b600061364c60268361426f565b91507f51756573743a204552433131353552656365697665722072656a65637465642060008301527f746f6b656e7300000000000000000000000000000000000000000000000000006020830152604082019050919050565b60006136b260288361426f565b91507f51756573743a20696e73756666696369656e742062616c616e636520666f722060008301527f7472616e736665720000000000000000000000000000000000000000000000006020830152604082019050919050565b6000613718601f8361426f565b91507f51756573743a206d696e7420746f20746865207a65726f2061646472657373006000830152602082019050919050565b600061375860108361426f565b91507f5061757361626c653a20706175736564000000000000000000000000000000006000830152602082019050919050565b6000613798601e8361426f565b91507f517565743a206e6f207472616e73666572207768696c652070617573656400006000830152602082019050919050565b60006137d860238361426f565b91507f51756573743a207472616e7366657220746f20746865207a65726f206164647260008301527f65737300000000000000000000000000000000000000000000000000000000006020830152604082019050919050565b600061383e601b8361426f565b91507f51756573743a20746f6b656e20616c7265616479206d696e74656400000000006000830152602082019050919050565b600061387e60278361426f565b91507f51756573743a2063616c6c6572206973206e6f74206f776e6572206e6f72206160008301527f7070726f766564000000000000000000000000000000000000000000000000006020830152604082019050919050565b60006138e4601b8361426f565b91507f51756573743a206e6f7420616c6c6f77656420746f20706175736500000000006000830152602082019050919050565b600061392460328361426f565b91507f51756573743a207472616e7366657220746f206e6f6e2045524331313535526560008301527f63656976657220696d706c656d656e74657200000000000000000000000000006020830152604082019050919050565b600061398a601d8361426f565b91507f51756573743a206e6f7420616c6c6f77656420746f20756e70617573650000006000830152602082019050919050565b60006139ca60298361426f565b91507f51756573743a2062616c616e636520717565727920666f7220746865207a657260008301527f6f206164647265737300000000000000000000000000000000000000000000006020830152604082019050919050565b6000613a3060278361426f565b91507f51756573743a2073657474696e6720617070726f76616c20737461747573206660008301527f6f722073656c66000000000000000000000000000000000000000000000000006020830152604082019050919050565b6000613a9660278361426f565b91507f51756573743a206163636f756e747320616e6420696473206c656e677468206d60008301527f69736d61746368000000000000000000000000000000000000000000000000006020830152604082019050919050565b6000613afc601783614280565b91507f416363657373436f6e74726f6c3a206163636f756e74200000000000000000006000830152601782019050919050565b6000613b3c602d8361426f565b91507f51756573743a20696473202620616d6f756e747320262076616c756573206c6560008301527f6e677468206d69736d61746368000000000000000000000000000000000000006020830152604082019050919050565b6000613ba2601183614280565b91507f206973206d697373696e6720726f6c65200000000000000000000000000000006000830152601182019050919050565b6000613be2602f8361426f565b91507f416363657373436f6e74726f6c3a2063616e206f6e6c792072656e6f756e636560008301527f20726f6c657320666f722073656c6600000000000000000000000000000000006020830152604082019050919050565b613c44816143e3565b82525050565b613c53816143e3565b82525050565b6000613c6482613aef565b9150613c708285613528565b9150613c7b82613b95565b9150613c878284613528565b91508190509392505050565b6000602082019050613ca8600083018461341c565b92915050565b600060c082019050613cc3600083018961341c565b613cd0602083018861341c565b8181036040830152613ce2818761342b565b90508181036060830152613cf6818661342b565b90508181036080830152613d0a818561342b565b905081810360a0830152613d1e81846134b6565b9050979650505050505050565b600060c082019050613d40600083018961341c565b613d4d602083018861341c565b613d5a6040830187613c4a565b613d676060830186613c4a565b613d746080830185613c4a565b81810360a0830152613d8681846134b6565b9050979650505050505050565b60006020820190508181036000830152613dad818461342b565b905092915050565b60006060820190508181036000830152613dcf818661342b565b90508181036020830152613de3818561342b565b90508181036040830152613df7818461342b565b9050949350505050565b6000602082019050613e166000830184613489565b92915050565b6000602082019050613e316000830184613498565b92915050565b6000602082019050613e4c60008301846134a7565b92915050565b60006040820190508181036000830152613e6c81856134b6565b9050613e7b602083018461341c565b9392505050565b60006020820190508181036000830152613e9c81846134ef565b905092915050565b60006020820190508181036000830152613ebd81613559565b9050919050565b60006020820190508181036000830152613edd81613599565b9050919050565b60006020820190508181036000830152613efd816135d9565b9050919050565b60006020820190508181036000830152613f1d8161363f565b9050919050565b60006020820190508181036000830152613f3d816136a5565b9050919050565b60006020820190508181036000830152613f5d8161370b565b9050919050565b60006020820190508181036000830152613f7d8161374b565b9050919050565b60006020820190508181036000830152613f9d8161378b565b9050919050565b60006020820190508181036000830152613fbd816137cb565b9050919050565b60006020820190508181036000830152613fdd81613831565b9050919050565b60006020820190508181036000830152613ffd81613871565b9050919050565b6000602082019050818103600083015261401d816138d7565b9050919050565b6000602082019050818103600083015261403d81613917565b9050919050565b6000602082019050818103600083015261405d8161397d565b9050919050565b6000602082019050818103600083015261407d816139bd565b9050919050565b6000602082019050818103600083015261409d81613a23565b9050919050565b600060208201905081810360008301526140bd81613a89565b9050919050565b600060208201905081810360008301526140dd81613b2f565b9050919050565b600060208201905081810360008301526140fd81613bd5565b9050919050565b60006020820190506141196000830184613c4a565b92915050565b60006060820190506141346000830186613c4a565b6141416020830185613c4a565b61414e6040830184613c4a565b949350505050565b6000604051905081810181811067ffffffffffffffff8211171561417d5761417c614532565b5b8060405250919050565b600067ffffffffffffffff8211156141a2576141a1614532565b5b602082029050602081019050919050565b600067ffffffffffffffff8211156141ce576141cd614532565b5b602082029050602081019050919050565b600067ffffffffffffffff8211156141fa576141f9614532565b5b601f19601f8301169050602081019050919050565b6000819050602082019050919050565b600081519050919050565b600081519050919050565b600081519050919050565b6000602082019050919050565b600082825260208201905092915050565b600082825260208201905092915050565b600082825260208201905092915050565b600081905092915050565b6000614296826143e3565b91506142a1836143e3565b9250827fffffffffffffffffffffffffffffffffffffffffffffffffffffffffffffffff038211156142d6576142d56144d4565b5b828201905092915050565b60006142ec826143e3565b91506142f7836143e3565b9250817fffffffffffffffffffffffffffffffffffffffffffffffffffffffffffffffff04831182151516156143305761432f6144d4565b5b828202905092915050565b6000614346826143e3565b9150614351836143e3565b925082821015614364576143636144d4565b5b828203905092915050565b600061437a826143c3565b9050919050565b60008115159050919050565b6000819050919050565b60007fffffffff0000000000000000000000000000000000000000000000000000000082169050919050565b600073ffffffffffffffffffffffffffffffffffffffff82169050919050565b6000819050919050565b82818337600083830152505050565b60005b8381101561441a5780820151818401526020810190506143ff565b83811115614429576000848401525b50505050565b600061443a826143e3565b9150600082141561444e5761444d6144d4565b5b600182039050919050565b6000600282049050600182168061447157607f821691505b6020821081141561448557614484614503565b5b50919050565b6000614496826143e3565b91507fffffffffffffffffffffffffffffffffffffffffffffffffffffffffffffffff8214156144c9576144c86144d4565b5b600182019050919050565b7f4e487b7100000000000000000000000000000000000000000000000000000000600052601160045260246000fd5b7f4e487b7100000000000000000000000000000000000000000000000000000000600052602260045260246000fd5b7f4e487b7100000000000000000000000000000000000000000000000000000000600052604160045260246000fd5b6000601f19601f8301169050919050565b60008160e01c9050919050565b600060443d101561458f57614632565b60046000803e6145a0600051614572565b6308c379a081146145b15750614632565b60405160043d036004823e80513d602482011167ffffffffffffffff821117156145dd57505050614632565b808201805167ffffffffffffffff8111156145fc575050505050614632565b8060208301013d850181111561461757505050505050614632565b61462082614561565b60208401016040528296505050505050505b90565b61463e8161436f565b811461464957600080fd5b50565b61465581614381565b811461466057600080fd5b50565b61466c8161438d565b811461467757600080fd5b50565b61468381614397565b811461468e57600080fd5b50565b61469a816143e3565b81146146a557600080fd5b5056fea2646970667358221220938b7664d00061098daf9f81fcca23cd505b97a30e630adee40493d47367bc9e64736f6c63430008000033",
  "linkReferences": {},
  "deployedLinkReferences": {}
}